{
  "address": "0xC45637a6ee993499916FaBbCDad2E0b662729351",
  "abi": [
    {
      "anonymous": false,
      "inputs": [
        {
          "indexed": true,
          "internalType": "address",
          "name": "previousOwner",
          "type": "address"
        },
        {
          "indexed": true,
          "internalType": "address",
          "name": "newOwner",
          "type": "address"
        }
      ],
      "name": "OwnershipTransferStarted",
      "type": "event"
    },
    {
      "anonymous": false,
      "inputs": [
        {
          "indexed": true,
          "internalType": "address",
          "name": "previousOwner",
          "type": "address"
        },
        {
          "indexed": true,
          "internalType": "address",
          "name": "newOwner",
          "type": "address"
        }
      ],
      "name": "OwnershipTransferred",
      "type": "event"
    },
    {
      "inputs": [],
      "name": "acceptOwnership",
      "outputs": [],
      "stateMutability": "nonpayable",
      "type": "function"
    },
    {
      "inputs": [
        {
          "internalType": "uint256",
          "name": "_amountIn",
          "type": "uint256"
        },
        {
          "internalType": "address",
          "name": "_fromAsset",
          "type": "address"
        },
        {
          "internalType": "address",
          "name": "_toAsset",
          "type": "address"
        },
        {
          "internalType": "bytes",
          "name": "_swapData",
          "type": "bytes"
        }
      ],
      "name": "callSwap",
      "outputs": [
        {
          "internalType": "uint256",
          "name": "amountOut",
          "type": "uint256"
        }
      ],
      "stateMutability": "payable",
      "type": "function"
    },
    {
      "inputs": [
        {
          "internalType": "uint256",
          "name": "_amount",
          "type": "uint256"
        },
        {
          "internalType": "bytes",
          "name": "_swapData",
          "type": "bytes"
        }
      ],
      "name": "decoderEncoderSwapAmount",
      "outputs": [
        {
          "internalType": "bytes",
          "name": "",
          "type": "bytes"
        }
      ],
      "stateMutability": "nonpayable",
      "type": "function"
    },
    {
      "inputs": [],
      "name": "oneInchRouter",
      "outputs": [
        {
          "internalType": "address",
          "name": "",
          "type": "address"
        }
      ],
      "stateMutability": "view",
      "type": "function"
    },
    {
      "inputs": [],
      "name": "owner",
      "outputs": [
        {
          "internalType": "address",
          "name": "",
          "type": "address"
        }
      ],
      "stateMutability": "view",
      "type": "function"
    },
    {
      "inputs": [],
      "name": "pendingOwner",
      "outputs": [
        {
          "internalType": "address",
          "name": "",
          "type": "address"
        }
      ],
      "stateMutability": "view",
      "type": "function"
    },
    {
      "inputs": [],
      "name": "renounceOwnership",
      "outputs": [],
      "stateMutability": "nonpayable",
      "type": "function"
    },
    {
      "inputs": [
        {
          "internalType": "address",
          "name": "newOwner",
          "type": "address"
        }
      ],
      "name": "transferOwnership",
      "outputs": [],
      "stateMutability": "nonpayable",
      "type": "function"
    },
    {
      "stateMutability": "payable",
      "type": "receive"
    }
  ],
  "transactionHash": "0x24165da0ad9a711389406bcd03bdee4f259b5569be52daf9b4f33a45bf1cafad",
  "args": [],
  "numDeployments": 1,
  "solcInputHash": "6188a0a22d3931c7365c57eb81aedc27",
  "bytecode": "0x60a0604052731111111254eeb25477b68fb85ed929f73a96058273ffffffffffffffffffffffffffffffffffffffff1660809073ffffffffffffffffffffffffffffffffffffffff1681525034801561005757600080fd5b5061007461006961007960201b60201c565b61008160201b60201c565b61017c565b600033905090565b600160006101000a81549073ffffffffffffffffffffffffffffffffffffffff02191690556100b5816100b860201b60201c565b50565b60008060009054906101000a900473ffffffffffffffffffffffffffffffffffffffff169050816000806101000a81548173ffffffffffffffffffffffffffffffffffffffff021916908373ffffffffffffffffffffffffffffffffffffffff1602179055508173ffffffffffffffffffffffffffffffffffffffff168173ffffffffffffffffffffffffffffffffffffffff167f8be0079c531659141344cd1fd0a4f28419497f9722a3daafe3b4186f6b6457e060405160405180910390a35050565b6080516115a96101ac600039600081816103d40152818161045d015281816104f0015261054301526115a96000f3fe60806040526004361061007f5760003560e01c80638e16caa31161004e5780638e16caa314610121578063ac3af20814610151578063e30c39781461017c578063f2fde38b146101a757610086565b8063715018a61461008b57806379ba5097146100a2578063882fbe36146100b95780638da5cb5b146100f657610086565b3661008657005b600080fd5b34801561009757600080fd5b506100a06101d0565b005b3480156100ae57600080fd5b506100b76101e4565b005b3480156100c557600080fd5b506100e060048036038101906100db9190610cd6565b610271565b6040516100ed9190610dc6565b60405180910390f35b34801561010257600080fd5b5061010b61037d565b6040516101189190610e29565b60405180910390f35b61013b60048036038101906101369190610e70565b6103a6565b6040516101489190610f07565b60405180910390f35b34801561015d57600080fd5b50610166610541565b6040516101739190610e29565b60405180910390f35b34801561018857600080fd5b50610191610565565b60405161019e9190610e29565b60405180910390f35b3480156101b357600080fd5b506101ce60048036038101906101c99190610f22565b61058f565b005b6101d861063c565b6101e260006106ba565b565b60006101ee6106eb565b90508073ffffffffffffffffffffffffffffffffffffffff1661020f610565565b73ffffffffffffffffffffffffffffffffffffffff1614610265576040517f08c379a000000000000000000000000000000000000000000000000000000000815260040161025c90610fd2565b60405180910390fd5b61026e816106ba565b50565b60606000803073ffffffffffffffffffffffffffffffffffffffff16858560049080926102a093929190610ffc565b906102ab919061107b565b8787876040516024016102c093929190611116565b604051602081830303815290604052907bffffffffffffffffffffffffffffffffffffffffffffffffffffffff19166020820180517bffffffffffffffffffffffffffffffffffffffffffffffffffffffff838183161783525050505060405161032a9190611184565b6000604051808303816000865af19150503d8060008114610367576040519150601f19603f3d011682016040523d82523d6000602084013e61036c565b606091505b509150915080925050509392505050565b60008060009054906101000a900473ffffffffffffffffffffffffffffffffffffffff16905090565b60006103b4853330896106f3565b858573ffffffffffffffffffffffffffffffffffffffff1663dd62ed3e307f00000000000000000000000000000000000000000000000000000000000000006040518363ffffffff1660e01b815260040161041092919061119b565b602060405180830381865afa15801561042d573d6000803e3d6000fd5b505050506040513d601f19601f8201168201806040525081019061045191906111d9565b10156104a3576104a2857f00000000000000000000000000000000000000000000000000000000000000007fffffffffffffffffffffffffffffffffffffffffffffffffffffffffffffffff61084b565b5b60006104b0878585610271565b90506000610534826040518060400160405280600981526020017f2163616c6c5377617000000000000000000000000000000000000000000000008152507f000000000000000000000000000000000000000000000000000000000000000073ffffffffffffffffffffffffffffffffffffffff166109a09092919063ffffffff16565b9050505095945050505050565b7f000000000000000000000000000000000000000000000000000000000000000081565b6000600160009054906101000a900473ffffffffffffffffffffffffffffffffffffffff16905090565b61059761063c565b80600160006101000a81548173ffffffffffffffffffffffffffffffffffffffff021916908373ffffffffffffffffffffffffffffffffffffffff1602179055508073ffffffffffffffffffffffffffffffffffffffff166105f761037d565b73ffffffffffffffffffffffffffffffffffffffff167f38d16b8cac22d99fc7c124b9cd0de2d3fa1faef420bfe791d8c362d765e2270060405160405180910390a350565b6106446106eb565b73ffffffffffffffffffffffffffffffffffffffff1661066261037d565b73ffffffffffffffffffffffffffffffffffffffff16146106b8576040517f08c379a00000000000000000000000000000000000000000000000000000000081526004016106af90611252565b60405180910390fd5b565b600160006101000a81549073ffffffffffffffffffffffffffffffffffffffff02191690556106e8816109b8565b50565b600033905090565b6000808573ffffffffffffffffffffffffffffffffffffffff166323b872dd60e01b86868660405160240161072a93929190611272565b604051602081830303815290604052907bffffffffffffffffffffffffffffffffffffffffffffffffffffffff19166020820180517bffffffffffffffffffffffffffffffffffffffffffffffffffffffff83818316178352505050506040516107949190611184565b6000604051808303816000865af19150503d80600081146107d1576040519150601f19603f3d011682016040523d82523d6000602084013e6107d6565b606091505b5091509150818015610804575060008151148061080357508080602001905181019061080291906112e1565b5b5b610843576040517f08c379a000000000000000000000000000000000000000000000000000000000815260040161083a9061135a565b60405180910390fd5b505050505050565b6000808473ffffffffffffffffffffffffffffffffffffffff1663095ea7b360e01b858560405160240161088092919061137a565b604051602081830303815290604052907bffffffffffffffffffffffffffffffffffffffffffffffffffffffff19166020820180517bffffffffffffffffffffffffffffffffffffffffffffffffffffffff83818316178352505050506040516108ea9190611184565b6000604051808303816000865af19150503d8060008114610927576040519150601f19603f3d011682016040523d82523d6000602084013e61092c565b606091505b509150915081801561095a575060008151148061095957508080602001905181019061095891906112e1565b5b5b610999576040517f08c379a0000000000000000000000000000000000000000000000000000000008152600401610990906113ef565b60405180910390fd5b5050505050565b60606109af8484600085610a7c565b90509392505050565b60008060009054906101000a900473ffffffffffffffffffffffffffffffffffffffff169050816000806101000a81548173ffffffffffffffffffffffffffffffffffffffff021916908373ffffffffffffffffffffffffffffffffffffffff1602179055508173ffffffffffffffffffffffffffffffffffffffff168173ffffffffffffffffffffffffffffffffffffffff167f8be0079c531659141344cd1fd0a4f28419497f9722a3daafe3b4186f6b6457e060405160405180910390a35050565b606082471015610ac1576040517f08c379a0000000000000000000000000000000000000000000000000000000008152600401610ab890611481565b60405180910390fd5b6000808673ffffffffffffffffffffffffffffffffffffffff168587604051610aea9190611184565b60006040518083038185875af1925050503d8060008114610b27576040519150601f19603f3d011682016040523d82523d6000602084013e610b2c565b606091505b5091509150610b3d87838387610b49565b92505050949350505050565b60608315610bab576000835103610ba357610b6385610bbe565b610ba2576040517f08c379a0000000000000000000000000000000000000000000000000000000008152600401610b99906114ed565b60405180910390fd5b5b829050610bb6565b610bb58383610be1565b5b949350505050565b6000808273ffffffffffffffffffffffffffffffffffffffff163b119050919050565b600082511115610bf45781518083602001fd5b806040517f08c379a0000000000000000000000000000000000000000000000000000000008152600401610c289190611551565b60405180910390fd5b600080fd5b600080fd5b6000819050919050565b610c4e81610c3b565b8114610c5957600080fd5b50565b600081359050610c6b81610c45565b92915050565b600080fd5b600080fd5b600080fd5b60008083601f840112610c9657610c95610c71565b5b8235905067ffffffffffffffff811115610cb357610cb2610c76565b5b602083019150836001820283011115610ccf57610cce610c7b565b5b9250929050565b600080600060408486031215610cef57610cee610c31565b5b6000610cfd86828701610c5c565b935050602084013567ffffffffffffffff811115610d1e57610d1d610c36565b5b610d2a86828701610c80565b92509250509250925092565b600081519050919050565b600082825260208201905092915050565b60005b83811015610d70578082015181840152602081019050610d55565b60008484015250505050565b6000601f19601f8301169050919050565b6000610d9882610d36565b610da28185610d41565b9350610db2818560208601610d52565b610dbb81610d7c565b840191505092915050565b60006020820190508181036000830152610de08184610d8d565b905092915050565b600073ffffffffffffffffffffffffffffffffffffffff82169050919050565b6000610e1382610de8565b9050919050565b610e2381610e08565b82525050565b6000602082019050610e3e6000830184610e1a565b92915050565b610e4d81610e08565b8114610e5857600080fd5b50565b600081359050610e6a81610e44565b92915050565b600080600080600060808688031215610e8c57610e8b610c31565b5b6000610e9a88828901610c5c565b9550506020610eab88828901610e5b565b9450506040610ebc88828901610e5b565b935050606086013567ffffffffffffffff811115610edd57610edc610c36565b5b610ee988828901610c80565b92509250509295509295909350565b610f0181610c3b565b82525050565b6000602082019050610f1c6000830184610ef8565b92915050565b600060208284031215610f3857610f37610c31565b5b6000610f4684828501610e5b565b91505092915050565b600082825260208201905092915050565b7f4f776e61626c6532537465703a2063616c6c6572206973206e6f74207468652060008201527f6e6577206f776e65720000000000000000000000000000000000000000000000602082015250565b6000610fbc602983610f4f565b9150610fc782610f60565b604082019050919050565b60006020820190508181036000830152610feb81610faf565b9050919050565b600080fd5b600080fd5b600080858511156110105761100f610ff2565b5b8386111561102157611020610ff7565b5b6001850283019150848603905094509492505050565b600082905092915050565b60007fffffffff0000000000000000000000000000000000000000000000000000000082169050919050565b600082821b905092915050565b60006110878383611037565b826110928135611042565b925060048210156110d2576110cd7fffffffff000000000000000000000000000000000000000000000000000000008360040360080261106e565b831692505b505092915050565b82818337600083830152505050565b60006110f58385610d41565b93506111028385846110da565b61110b83610d7c565b840190509392505050565b600060408201905061112b6000830186610ef8565b818103602083015261113e8184866110e9565b9050949350505050565b600081905092915050565b600061115e82610d36565b6111688185611148565b9350611178818560208601610d52565b80840191505092915050565b60006111908284611153565b915081905092915050565b60006040820190506111b06000830185610e1a565b6111bd6020830184610e1a565b9392505050565b6000815190506111d381610c45565b92915050565b6000602082840312156111ef576111ee610c31565b5b60006111fd848285016111c4565b91505092915050565b7f4f776e61626c653a2063616c6c6572206973206e6f7420746865206f776e6572600082015250565b600061123c602083610f4f565b915061124782611206565b602082019050919050565b6000602082019050818103600083015261126b8161122f565b9050919050565b60006060820190506112876000830186610e1a565b6112946020830185610e1a565b6112a16040830184610ef8565b949350505050565b60008115159050919050565b6112be816112a9565b81146112c957600080fd5b50565b6000815190506112db816112b5565b92915050565b6000602082840312156112f7576112f6610c31565b5b6000611305848285016112cc565b91505092915050565b7f5354460000000000000000000000000000000000000000000000000000000000600082015250565b6000611344600383610f4f565b915061134f8261130e565b602082019050919050565b6000602082019050818103600083015261137381611337565b9050919050565b600060408201905061138f6000830185610e1a565b61139c6020830184610ef8565b9392505050565b7f5341000000000000000000000000000000000000000000000000000000000000600082015250565b60006113d9600283610f4f565b91506113e4826113a3565b602082019050919050565b60006020820190508181036000830152611408816113cc565b9050919050565b7f416464726573733a20696e73756666696369656e742062616c616e636520666f60008201527f722063616c6c0000000000000000000000000000000000000000000000000000602082015250565b600061146b602683610f4f565b91506114768261140f565b604082019050919050565b6000602082019050818103600083015261149a8161145e565b9050919050565b7f416464726573733a2063616c6c20746f206e6f6e2d636f6e7472616374000000600082015250565b60006114d7601d83610f4f565b91506114e2826114a1565b602082019050919050565b60006020820190508181036000830152611506816114ca565b9050919050565b600081519050919050565b60006115238261150d565b61152d8185610f4f565b935061153d818560208601610d52565b61154681610d7c565b840191505092915050565b6000602082019050818103600083015261156b8184611518565b90509291505056fea264697066735822122012ba8e0bdc52f7f772d6df5be0f9a896366672723e6ec7a6b08dde4f4c20ddeb64736f6c63430008130033",
  "devdoc": {
    "kind": "dev",
    "methods": {
      "acceptOwnership()": {
        "details": "The new owner accepts the ownership transfer."
      },
      "callSwap(uint256,address,address,bytes)": {
        "details": "Decode the passed in data and re-encode it with the correct amountIn. This is because the amountIn is not known until the funds are transferred to this contract.",
        "params": {
          "_amountIn": "Amount of tokens to swap.",
          "_fromAsset": "Address of the token to swap from.",
          "_swapData": "Data to pass to the 1inch aggregator router.",
          "_toAsset": "Address of the token to swap to."
        }
      },
      "owner()": {
        "details": "Returns the address of the current owner."
      },
      "pendingOwner()": {
        "details": "Returns the address of the pending owner."
      },
      "renounceOwnership()": {
        "details": "Leaves the contract without owner. It will not be possible to call `onlyOwner` functions anymore. Can only be called by the current owner. NOTE: Renouncing ownership will leave the contract without an owner, thereby removing any functionality that is only available to the owner."
      },
      "transferOwnership(address)": {
        "details": "Starts the ownership transfer of the contract to a new account. Replaces the pending transfer if there is one. Can only be called by the current owner."
      }
    },
    "title": "OneInchUniswapV3",
    "version": 1
  },
  "userdoc": {
    "kind": "user",
    "methods": {
      "callSwap(uint256,address,address,bytes)": {
        "notice": "Swap the given amount of tokens using 1inch."
      }
    },
    "notice": "Swapper contract for 1inch swaps.",
    "version": 1
  },
  "storageLayout": {
    "storage": [
      {
        "astId": 368,
        "contract": "contracts/shared/Swap/OneInch/OneInchSwapAdapter.sol:OneInchSwapAdapter",
        "label": "_owner",
        "offset": 0,
        "slot": "0",
        "type": "t_address"
      },
      {
        "astId": 481,
        "contract": "contracts/shared/Swap/OneInch/OneInchSwapAdapter.sol:OneInchSwapAdapter",
        "label": "_pendingOwner",
        "offset": 0,
        "slot": "1",
        "type": "t_address"
      }
    ],
    "types": {
      "t_address": {
        "encoding": "inplace",
        "label": "address",
        "numberOfBytes": "20"
      }
    }
  }
}