{
  "address": "0x86f6ACcDd46591b57835884Bc5484556bfD34E48",
  "abi": [
    {
      "inputs": [],
      "stateMutability": "nonpayable",
      "type": "constructor"
    },
    {
      "anonymous": false,
      "inputs": [
        {
          "indexed": true,
          "internalType": "address",
          "name": "previousOwner",
          "type": "address"
        },
        {
          "indexed": true,
          "internalType": "address",
          "name": "newOwner",
          "type": "address"
        }
      ],
      "name": "OwnershipTransferStarted",
      "type": "event"
    },
    {
      "anonymous": false,
      "inputs": [
        {
          "indexed": true,
          "internalType": "address",
          "name": "previousOwner",
          "type": "address"
        },
        {
          "indexed": true,
          "internalType": "address",
          "name": "newOwner",
          "type": "address"
        }
      ],
      "name": "OwnershipTransferred",
      "type": "event"
    },
    {
      "inputs": [],
      "name": "acceptOwnership",
      "outputs": [],
      "stateMutability": "nonpayable",
      "type": "function"
    },
    {
      "inputs": [
        {
          "internalType": "address",
          "name": "_swapper",
          "type": "address"
        }
      ],
      "name": "addSwapper",
      "outputs": [],
      "stateMutability": "nonpayable",
      "type": "function"
    },
    {
      "inputs": [
        {
          "internalType": "address",
          "name": "",
          "type": "address"
        }
      ],
      "name": "allowedSwappers",
      "outputs": [
        {
          "internalType": "bool",
          "name": "",
          "type": "bool"
        }
      ],
      "stateMutability": "view",
      "type": "function"
    },
    {
      "inputs": [
        {
          "internalType": "address",
          "name": "_swapper",
          "type": "address"
        },
        {
          "internalType": "bytes",
          "name": "swapData",
          "type": "bytes"
        }
      ],
      "name": "directSwapperCall",
      "outputs": [
        {
          "internalType": "uint256",
          "name": "amountOut",
          "type": "uint256"
        }
      ],
      "stateMutability": "payable",
      "type": "function"
    },
    {
      "inputs": [
        {
          "internalType": "address",
          "name": "_swapper",
          "type": "address"
        },
        {
          "internalType": "uint256",
          "name": "_amountIn",
          "type": "uint256"
        },
        {
          "internalType": "address",
          "name": "_fromAsset",
          "type": "address"
        },
        {
          "internalType": "address",
          "name": "_toAsset",
          "type": "address"
        },
        {
          "internalType": "bytes",
          "name": "_swapData",
          "type": "bytes"
        }
      ],
      "name": "exactSwap",
      "outputs": [
        {
          "internalType": "uint256",
          "name": "amountOut",
          "type": "uint256"
        }
      ],
      "stateMutability": "payable",
      "type": "function"
    },
    {
      "inputs": [],
      "name": "owner",
      "outputs": [
        {
          "internalType": "address",
          "name": "",
          "type": "address"
        }
      ],
      "stateMutability": "view",
      "type": "function"
    },
    {
      "inputs": [],
      "name": "pendingOwner",
      "outputs": [
        {
          "internalType": "address",
          "name": "",
          "type": "address"
        }
      ],
      "stateMutability": "view",
      "type": "function"
    },
    {
      "inputs": [
        {
          "internalType": "address",
          "name": "_swapper",
          "type": "address"
        }
      ],
      "name": "removeSwapper",
      "outputs": [],
      "stateMutability": "nonpayable",
      "type": "function"
    },
    {
      "inputs": [],
      "name": "renounceOwnership",
      "outputs": [],
      "stateMutability": "nonpayable",
      "type": "function"
    },
    {
      "inputs": [
        {
          "internalType": "address",
          "name": "newOwner",
          "type": "address"
        }
      ],
      "name": "transferOwnership",
      "outputs": [],
      "stateMutability": "nonpayable",
      "type": "function"
    },
    {
      "stateMutability": "payable",
      "type": "receive"
    }
  ],
  "transactionHash": "0xc5aeb0c995fda6e42250b16d4e3a7a9049d0c6aedea050bf3abd7df06d50a404",
  "args": [],
  "numDeployments": 1,
  "solcInputHash": "6188a0a22d3931c7365c57eb81aedc27",
  "bytecode": "0x608060405234801561001057600080fd5b5061002d61002261008a60201b60201c565b61009260201b60201c565b6001600260003073ffffffffffffffffffffffffffffffffffffffff1673ffffffffffffffffffffffffffffffffffffffff16815260200190815260200160002060006101000a81548160ff02191690831515021790555061018d565b600033905090565b600160006101000a81549073ffffffffffffffffffffffffffffffffffffffff02191690556100c6816100c960201b60201c565b50565b60008060009054906101000a900473ffffffffffffffffffffffffffffffffffffffff169050816000806101000a81548173ffffffffffffffffffffffffffffffffffffffff021916908373ffffffffffffffffffffffffffffffffffffffff1602179055508173ffffffffffffffffffffffffffffffffffffffff168173ffffffffffffffffffffffffffffffffffffffff167f8be0079c531659141344cd1fd0a4f28419497f9722a3daafe3b4186f6b6457e060405160405180910390a35050565b6114358061019c6000396000f3fe6080604052600436106100955760003560e01c806399385006116100595780639938500614610160578063a0d7010214610189578063defc2248146101b9578063e30c3978146101e9578063f2fde38b146102145761009c565b80633f2d4131146100a1578063715018a6146100ca57806379ba5097146100e15780638da5cb5b146100f85780638ff1ed97146101235761009c565b3661009c57005b600080fd5b3480156100ad57600080fd5b506100c860048036038101906100c39190610c47565b61023d565b005b3480156100d657600080fd5b506100df6102a0565b005b3480156100ed57600080fd5b506100f66102b4565b005b34801561010457600080fd5b5061010d610341565b60405161011a9190610c83565b60405180910390f35b34801561012f57600080fd5b5061014a60048036038101906101459190610c47565b61036a565b6040516101579190610cb9565b60405180910390f35b34801561016c57600080fd5b5061018760048036038101906101829190610c47565b61038a565b005b6101a3600480360381019061019e9190610d39565b6103ed565b6040516101b09190610db2565b60405180910390f35b6101d360048036038101906101ce9190610df9565b6104b6565b6040516101e09190610db2565b60405180910390f35b3480156101f557600080fd5b506101fe610683565b60405161020b9190610c83565b60405180910390f35b34801561022057600080fd5b5061023b60048036038101906102369190610c47565b6106ad565b005b61024561075a565b6000600260008373ffffffffffffffffffffffffffffffffffffffff1673ffffffffffffffffffffffffffffffffffffffff16815260200190815260200160002060006101000a81548160ff02191690831515021790555050565b6102a861075a565b6102b260006107d8565b565b60006102be610809565b90508073ffffffffffffffffffffffffffffffffffffffff166102df610683565b73ffffffffffffffffffffffffffffffffffffffff1614610335576040517f08c379a000000000000000000000000000000000000000000000000000000000815260040161032c90610f16565b60405180910390fd5b61033e816107d8565b50565b60008060009054906101000a900473ffffffffffffffffffffffffffffffffffffffff16905090565b60026020528060005260406000206000915054906101000a900460ff1681565b61039261075a565b6001600260008373ffffffffffffffffffffffffffffffffffffffff1673ffffffffffffffffffffffffffffffffffffffff16815260200190815260200160002060006101000a81548160ff02191690831515021790555050565b60008061049684848080601f016020809104026020016040519081016040528093929190818152602001838380828437600081840152601f19601f82011690508083019250505050505050346040518060400160405280601881526020017f216469726563745377617070657243616c6c4661696c656400000000000000008152508873ffffffffffffffffffffffffffffffffffffffff16610811909392919063ffffffff16565b9050808060200190518101906104ac9190610f4b565b9150509392505050565b6000600260008873ffffffffffffffffffffffffffffffffffffffff1673ffffffffffffffffffffffffffffffffffffffff16815260200190815260200160002060009054906101000a900460ff16610544576040517f08c379a000000000000000000000000000000000000000000000000000000000815260040161053b90610fc4565b60405180910390fd5b858573ffffffffffffffffffffffffffffffffffffffff1663dd62ed3e308a6040518363ffffffff1660e01b8152600401610580929190610fe4565b602060405180830381865afa15801561059d573d6000803e3d6000fd5b505050506040513d601f19601f820116820180604052508101906105c19190610f4b565b10156105f3576105f285887fffffffffffffffffffffffffffffffffffffffffffffffffffffffffffffffff6108de565b5b8673ffffffffffffffffffffffffffffffffffffffff16638e16caa387878787876040518663ffffffff1660e01b815260040161063495949392919061106b565b6020604051808303816000875af1158015610653573d6000803e3d6000fd5b505050506040513d601f19601f820116820180604052508101906106779190610f4b565b90509695505050505050565b6000600160009054906101000a900473ffffffffffffffffffffffffffffffffffffffff16905090565b6106b561075a565b80600160006101000a81548173ffffffffffffffffffffffffffffffffffffffff021916908373ffffffffffffffffffffffffffffffffffffffff1602179055508073ffffffffffffffffffffffffffffffffffffffff16610715610341565b73ffffffffffffffffffffffffffffffffffffffff167f38d16b8cac22d99fc7c124b9cd0de2d3fa1faef420bfe791d8c362d765e2270060405160405180910390a350565b610762610809565b73ffffffffffffffffffffffffffffffffffffffff16610780610341565b73ffffffffffffffffffffffffffffffffffffffff16146107d6576040517f08c379a00000000000000000000000000000000000000000000000000000000081526004016107cd90611105565b60405180910390fd5b565b600160006101000a81549073ffffffffffffffffffffffffffffffffffffffff021916905561080681610a33565b50565b600033905090565b606082471015610856576040517f08c379a000000000000000000000000000000000000000000000000000000000815260040161084d90611197565b60405180910390fd5b6000808673ffffffffffffffffffffffffffffffffffffffff16858760405161087f9190611228565b60006040518083038185875af1925050503d80600081146108bc576040519150601f19603f3d011682016040523d82523d6000602084013e6108c1565b606091505b50915091506108d287838387610af7565b92505050949350505050565b6000808473ffffffffffffffffffffffffffffffffffffffff1663095ea7b360e01b858560405160240161091392919061123f565b604051602081830303815290604052907bffffffffffffffffffffffffffffffffffffffffffffffffffffffff19166020820180517bffffffffffffffffffffffffffffffffffffffffffffffffffffffff838183161783525050505060405161097d9190611228565b6000604051808303816000865af19150503d80600081146109ba576040519150601f19603f3d011682016040523d82523d6000602084013e6109bf565b606091505b50915091508180156109ed57506000815114806109ec5750808060200190518101906109eb9190611294565b5b5b610a2c576040517f08c379a0000000000000000000000000000000000000000000000000000000008152600401610a239061130d565b60405180910390fd5b5050505050565b60008060009054906101000a900473ffffffffffffffffffffffffffffffffffffffff169050816000806101000a81548173ffffffffffffffffffffffffffffffffffffffff021916908373ffffffffffffffffffffffffffffffffffffffff1602179055508173ffffffffffffffffffffffffffffffffffffffff168173ffffffffffffffffffffffffffffffffffffffff167f8be0079c531659141344cd1fd0a4f28419497f9722a3daafe3b4186f6b6457e060405160405180910390a35050565b60608315610b59576000835103610b5157610b1185610b6c565b610b50576040517f08c379a0000000000000000000000000000000000000000000000000000000008152600401610b4790611379565b60405180910390fd5b5b829050610b64565b610b638383610b8f565b5b949350505050565b6000808273ffffffffffffffffffffffffffffffffffffffff163b119050919050565b600082511115610ba25781518083602001fd5b806040517f08c379a0000000000000000000000000000000000000000000000000000000008152600401610bd691906113dd565b60405180910390fd5b600080fd5b600080fd5b600073ffffffffffffffffffffffffffffffffffffffff82169050919050565b6000610c1482610be9565b9050919050565b610c2481610c09565b8114610c2f57600080fd5b50565b600081359050610c4181610c1b565b92915050565b600060208284031215610c5d57610c5c610bdf565b5b6000610c6b84828501610c32565b91505092915050565b610c7d81610c09565b82525050565b6000602082019050610c986000830184610c74565b92915050565b60008115159050919050565b610cb381610c9e565b82525050565b6000602082019050610cce6000830184610caa565b92915050565b600080fd5b600080fd5b600080fd5b60008083601f840112610cf957610cf8610cd4565b5b8235905067ffffffffffffffff811115610d1657610d15610cd9565b5b602083019150836001820283011115610d3257610d31610cde565b5b9250929050565b600080600060408486031215610d5257610d51610bdf565b5b6000610d6086828701610c32565b935050602084013567ffffffffffffffff811115610d8157610d80610be4565b5b610d8d86828701610ce3565b92509250509250925092565b6000819050919050565b610dac81610d99565b82525050565b6000602082019050610dc76000830184610da3565b92915050565b610dd681610d99565b8114610de157600080fd5b50565b600081359050610df381610dcd565b92915050565b60008060008060008060a08789031215610e1657610e15610bdf565b5b6000610e2489828a01610c32565b9650506020610e3589828a01610de4565b9550506040610e4689828a01610c32565b9450506060610e5789828a01610c32565b935050608087013567ffffffffffffffff811115610e7857610e77610be4565b5b610e8489828a01610ce3565b92509250509295509295509295565b600082825260208201905092915050565b7f4f776e61626c6532537465703a2063616c6c6572206973206e6f74207468652060008201527f6e6577206f776e65720000000000000000000000000000000000000000000000602082015250565b6000610f00602983610e93565b9150610f0b82610ea4565b604082019050919050565b60006020820190508181036000830152610f2f81610ef3565b9050919050565b600081519050610f4581610dcd565b92915050565b600060208284031215610f6157610f60610bdf565b5b6000610f6f84828501610f36565b91505092915050565b7f21616c6c6f776564537761707065720000000000000000000000000000000000600082015250565b6000610fae600f83610e93565b9150610fb982610f78565b602082019050919050565b60006020820190508181036000830152610fdd81610fa1565b9050919050565b6000604082019050610ff96000830185610c74565b6110066020830184610c74565b9392505050565b600082825260208201905092915050565b82818337600083830152505050565b6000601f19601f8301169050919050565b600061104a838561100d565b935061105783858461101e565b6110608361102d565b840190509392505050565b60006080820190506110806000830188610da3565b61108d6020830187610c74565b61109a6040830186610c74565b81810360608301526110ad81848661103e565b90509695505050505050565b7f4f776e61626c653a2063616c6c6572206973206e6f7420746865206f776e6572600082015250565b60006110ef602083610e93565b91506110fa826110b9565b602082019050919050565b6000602082019050818103600083015261111e816110e2565b9050919050565b7f416464726573733a20696e73756666696369656e742062616c616e636520666f60008201527f722063616c6c0000000000000000000000000000000000000000000000000000602082015250565b6000611181602683610e93565b915061118c82611125565b604082019050919050565b600060208201905081810360008301526111b081611174565b9050919050565b600081519050919050565b600081905092915050565b60005b838110156111eb5780820151818401526020810190506111d0565b60008484015250505050565b6000611202826111b7565b61120c81856111c2565b935061121c8185602086016111cd565b80840191505092915050565b600061123482846111f7565b915081905092915050565b60006040820190506112546000830185610c74565b6112616020830184610da3565b9392505050565b61127181610c9e565b811461127c57600080fd5b50565b60008151905061128e81611268565b92915050565b6000602082840312156112aa576112a9610bdf565b5b60006112b88482850161127f565b91505092915050565b7f5341000000000000000000000000000000000000000000000000000000000000600082015250565b60006112f7600283610e93565b9150611302826112c1565b602082019050919050565b60006020820190508181036000830152611326816112ea565b9050919050565b7f416464726573733a2063616c6c20746f206e6f6e2d636f6e7472616374000000600082015250565b6000611363601d83610e93565b915061136e8261132d565b602082019050919050565b6000602082019050818103600083015261139281611356565b9050919050565b600081519050919050565b60006113af82611399565b6113b98185610e93565b93506113c98185602086016111cd565b6113d28161102d565b840191505092915050565b600060208201905081810360008301526113f781846113a4565b90509291505056fea26469706673582212201507c61dc35364a6dc398bd002efcb899869190b307574f5516ea37a0445a25864736f6c63430008130033",
  "devdoc": {
    "author": "Connext",
    "kind": "dev",
    "methods": {
      "acceptOwnership()": {
        "details": "The new owner accepts the ownership transfer."
      },
      "addSwapper(address)": {
        "params": {
          "_swapper": "Address of the swapper to add."
        }
      },
      "directSwapperCall(address,bytes)": {
        "params": {
          "_swapper": "Address of the swapper to use.",
          "swapData": "Data to pass to the swapper. This data is encoded for a particular swap router."
        }
      },
      "exactSwap(address,uint256,address,address,bytes)": {
        "params": {
          "_amountIn": "Amount of tokens to swap.",
          "_fromAsset": "Address of the token to swap from.",
          "_swapData": "Data to pass to the swapper. This data is encoded for a particular swap router, usually given by an API. The swapper will decode the data and re-encode it with the new amountIn.",
          "_swapper": "Address of the swapper to use.",
          "_toAsset": "Address of the token to swap to."
        }
      },
      "owner()": {
        "details": "Returns the address of the current owner."
      },
      "pendingOwner()": {
        "details": "Returns the address of the pending owner."
      },
      "removeSwapper(address)": {
        "params": {
          "_swapper": "Address of the swapper to remove."
        }
      },
      "renounceOwnership()": {
        "details": "Leaves the contract without owner. It will not be possible to call `onlyOwner` functions anymore. Can only be called by the current owner. NOTE: Renouncing ownership will leave the contract without an owner, thereby removing any functionality that is only available to the owner."
      },
      "transferOwnership(address)": {
        "details": "Starts the ownership transfer of the contract to a new account. Replaces the pending transfer if there is one. Can only be called by the current owner."
      }
    },
    "title": "SwapAdapter",
    "version": 1
  },
  "userdoc": {
    "kind": "user",
    "methods": {
      "addSwapper(address)": {
        "notice": "Add a swapper to the list of allowed swappers."
      },
      "directSwapperCall(address,bytes)": {
        "notice": "Swap an exact amount of tokens for another token. Uses a direct call to the swapper to allow easy swaps on the source side where the amount does not need to be changed."
      },
      "exactSwap(address,uint256,address,address,bytes)": {
        "notice": "Swap an exact amount of tokens for another token."
      },
      "removeSwapper(address)": {
        "notice": "Remove a swapper from the list of allowed swappers."
      }
    },
    "notice": "This contract is used to provide a generic interface to swap tokens through a variety of different swap routers. It is used to swap tokens before proceeding with other actions. Swap router implementations can be added by owner. This is designed to be owned by the Connext DAO and swappers can be added by the DAO.",
    "version": 1
  },
  "storageLayout": {
    "storage": [
      {
        "astId": 368,
        "contract": "contracts/shared/Swap/SwapAdapter.sol:SwapAdapter",
        "label": "_owner",
        "offset": 0,
        "slot": "0",
        "type": "t_address"
      },
      {
        "astId": 481,
        "contract": "contracts/shared/Swap/SwapAdapter.sol:SwapAdapter",
        "label": "_pendingOwner",
        "offset": 0,
        "slot": "1",
        "type": "t_address"
      },
      {
        "astId": 3127,
        "contract": "contracts/shared/Swap/SwapAdapter.sol:SwapAdapter",
        "label": "allowedSwappers",
        "offset": 0,
        "slot": "2",
        "type": "t_mapping(t_address,t_bool)"
      }
    ],
    "types": {
      "t_address": {
        "encoding": "inplace",
        "label": "address",
        "numberOfBytes": "20"
      },
      "t_bool": {
        "encoding": "inplace",
        "label": "bool",
        "numberOfBytes": "1"
      },
      "t_mapping(t_address,t_bool)": {
        "encoding": "mapping",
        "key": "t_address",
        "label": "mapping(address => bool)",
        "numberOfBytes": "32",
        "value": "t_bool"
      }
    }
  }
}